{
  "contractName": "MZNFT",
  "abi": [
    {
      "inputs": [],
      "payable": false,
      "stateMutability": "nonpayable",
      "type": "constructor"
    },
    {
      "anonymous": false,
      "inputs": [
        {
          "indexed": true,
          "internalType": "address",
          "name": "owner",
          "type": "address"
        },
        {
          "indexed": true,
          "internalType": "address",
          "name": "approved",
          "type": "address"
        },
        {
          "indexed": true,
          "internalType": "uint256",
          "name": "tokenId",
          "type": "uint256"
        }
      ],
      "name": "Approval",
      "type": "event"
    },
    {
      "anonymous": false,
      "inputs": [
        {
          "indexed": true,
          "internalType": "address",
          "name": "owner",
          "type": "address"
        },
        {
          "indexed": true,
          "internalType": "address",
          "name": "operator",
          "type": "address"
        },
        {
          "indexed": false,
          "internalType": "bool",
          "name": "approved",
          "type": "bool"
        }
      ],
      "name": "ApprovalForAll",
      "type": "event"
    },
    {
      "anonymous": false,
      "inputs": [
        {
          "indexed": true,
          "internalType": "address",
          "name": "from",
          "type": "address"
        },
        {
          "indexed": true,
          "internalType": "address",
          "name": "to",
          "type": "address"
        },
        {
          "indexed": true,
          "internalType": "uint256",
          "name": "tokenId",
          "type": "uint256"
        }
      ],
      "name": "Transfer",
      "type": "event"
    },
    {
      "constant": true,
      "inputs": [
        {
          "internalType": "uint256",
          "name": "",
          "type": "uint256"
        }
      ],
      "name": "Items",
      "outputs": [
        {
          "internalType": "uint256",
          "name": "id",
          "type": "uint256"
        },
        {
          "internalType": "string",
          "name": "name",
          "type": "string"
        },
        {
          "internalType": "address",
          "name": "creator",
          "type": "address"
        },
        {
          "internalType": "string",
          "name": "img_uri",
          "type": "string"
        }
      ],
      "payable": false,
      "stateMutability": "view",
      "type": "function"
    },
    {
      "constant": false,
      "inputs": [
        {
          "internalType": "address",
          "name": "to",
          "type": "address"
        },
        {
          "internalType": "uint256",
          "name": "tokenId",
          "type": "uint256"
        }
      ],
      "name": "approve",
      "outputs": [],
      "payable": false,
      "stateMutability": "nonpayable",
      "type": "function"
    },
    {
      "constant": true,
      "inputs": [
        {
          "internalType": "address",
          "name": "owner",
          "type": "address"
        }
      ],
      "name": "balanceOf",
      "outputs": [
        {
          "internalType": "uint256",
          "name": "",
          "type": "uint256"
        }
      ],
      "payable": false,
      "stateMutability": "view",
      "type": "function"
    },
    {
      "constant": true,
      "inputs": [
        {
          "internalType": "uint256",
          "name": "tokenId",
          "type": "uint256"
        }
      ],
      "name": "getApproved",
      "outputs": [
        {
          "internalType": "address",
          "name": "",
          "type": "address"
        }
      ],
      "payable": false,
      "stateMutability": "view",
      "type": "function"
    },
    {
      "constant": true,
      "inputs": [
        {
          "internalType": "address",
          "name": "owner",
          "type": "address"
        },
        {
          "internalType": "address",
          "name": "operator",
          "type": "address"
        }
      ],
      "name": "isApprovedForAll",
      "outputs": [
        {
          "internalType": "bool",
          "name": "",
          "type": "bool"
        }
      ],
      "payable": false,
      "stateMutability": "view",
      "type": "function"
    },
    {
      "constant": true,
      "inputs": [],
      "name": "name",
      "outputs": [
        {
          "internalType": "string",
          "name": "",
          "type": "string"
        }
      ],
      "payable": false,
      "stateMutability": "view",
      "type": "function"
    },
    {
      "constant": true,
      "inputs": [
        {
          "internalType": "uint256",
          "name": "tokenId",
          "type": "uint256"
        }
      ],
      "name": "ownerOf",
      "outputs": [
        {
          "internalType": "address",
          "name": "",
          "type": "address"
        }
      ],
      "payable": false,
      "stateMutability": "view",
      "type": "function"
    },
    {
      "constant": false,
      "inputs": [
        {
          "internalType": "address",
          "name": "from",
          "type": "address"
        },
        {
          "internalType": "address",
          "name": "to",
          "type": "address"
        },
        {
          "internalType": "uint256",
          "name": "tokenId",
          "type": "uint256"
        }
      ],
      "name": "safeTransferFrom",
      "outputs": [],
      "payable": false,
      "stateMutability": "nonpayable",
      "type": "function"
    },
    {
      "constant": false,
      "inputs": [
        {
          "internalType": "address",
          "name": "from",
          "type": "address"
        },
        {
          "internalType": "address",
          "name": "to",
          "type": "address"
        },
        {
          "internalType": "uint256",
          "name": "tokenId",
          "type": "uint256"
        },
        {
          "internalType": "bytes",
          "name": "_data",
          "type": "bytes"
        }
      ],
      "name": "safeTransferFrom",
      "outputs": [],
      "payable": false,
      "stateMutability": "nonpayable",
      "type": "function"
    },
    {
      "constant": false,
      "inputs": [
        {
          "internalType": "address",
          "name": "to",
          "type": "address"
        },
        {
          "internalType": "bool",
          "name": "approved",
          "type": "bool"
        }
      ],
      "name": "setApprovalForAll",
      "outputs": [],
      "payable": false,
      "stateMutability": "nonpayable",
      "type": "function"
    },
    {
      "constant": true,
      "inputs": [
        {
          "internalType": "bytes4",
          "name": "interfaceId",
          "type": "bytes4"
        }
      ],
      "name": "supportsInterface",
      "outputs": [
        {
          "internalType": "bool",
          "name": "",
          "type": "bool"
        }
      ],
      "payable": false,
      "stateMutability": "view",
      "type": "function"
    },
    {
      "constant": true,
      "inputs": [],
      "name": "symbol",
      "outputs": [
        {
          "internalType": "string",
          "name": "",
          "type": "string"
        }
      ],
      "payable": false,
      "stateMutability": "view",
      "type": "function"
    },
    {
      "constant": true,
      "inputs": [
        {
          "internalType": "uint256",
          "name": "index",
          "type": "uint256"
        }
      ],
      "name": "tokenByIndex",
      "outputs": [
        {
          "internalType": "uint256",
          "name": "",
          "type": "uint256"
        }
      ],
      "payable": false,
      "stateMutability": "view",
      "type": "function"
    },
    {
      "constant": true,
      "inputs": [
        {
          "internalType": "address",
          "name": "owner",
          "type": "address"
        },
        {
          "internalType": "uint256",
          "name": "index",
          "type": "uint256"
        }
      ],
      "name": "tokenOfOwnerByIndex",
      "outputs": [
        {
          "internalType": "uint256",
          "name": "",
          "type": "uint256"
        }
      ],
      "payable": false,
      "stateMutability": "view",
      "type": "function"
    },
    {
      "constant": true,
      "inputs": [],
      "name": "totalSupply",
      "outputs": [
        {
          "internalType": "uint256",
          "name": "",
          "type": "uint256"
        }
      ],
      "payable": false,
      "stateMutability": "view",
      "type": "function"
    },
    {
      "constant": false,
      "inputs": [
        {
          "internalType": "address",
          "name": "from",
          "type": "address"
        },
        {
          "internalType": "address",
          "name": "to",
          "type": "address"
        },
        {
          "internalType": "uint256",
          "name": "tokenId",
          "type": "uint256"
        }
      ],
      "name": "transferFrom",
      "outputs": [],
      "payable": false,
      "stateMutability": "nonpayable",
      "type": "function"
    },
    {
      "constant": false,
      "inputs": [
        {
          "internalType": "address",
          "name": "creator",
          "type": "address"
        },
        {
          "internalType": "string",
          "name": "uri",
          "type": "string"
        },
        {
          "internalType": "string",
          "name": "contentName",
          "type": "string"
        }
      ],
      "name": "mint",
      "outputs": [
        {
          "internalType": "uint256",
          "name": "",
          "type": "uint256"
        }
      ],
      "payable": false,
      "stateMutability": "nonpayable",
      "type": "function"
    },
    {
      "constant": true,
      "inputs": [
        {
          "internalType": "uint256",
          "name": "tokenId",
          "type": "uint256"
        }
      ],
      "name": "tokenURI",
      "outputs": [
        {
          "internalType": "string",
          "name": "",
          "type": "string"
        }
      ],
      "payable": false,
      "stateMutability": "view",
      "type": "function"
    },
    {
      "constant": true,
      "inputs": [
        {
          "internalType": "uint256",
          "name": "tokenId",
          "type": "uint256"
        }
      ],
      "name": "getItem",
      "outputs": [
        {
          "components": [
            {
              "internalType": "uint256",
              "name": "id",
              "type": "uint256"
            },
            {
              "internalType": "string",
              "name": "name",
              "type": "string"
            },
            {
              "internalType": "address",
              "name": "creator",
              "type": "address"
            },
            {
              "internalType": "string",
              "name": "img_uri",
              "type": "string"
            }
          ],
          "internalType": "struct MZNFT.Item",
          "name": "",
          "type": "tuple"
        }
      ],
      "payable": false,
      "stateMutability": "view",
      "type": "function"
    }
  ],
  "bytecode": "0x60806040523480156200001157600080fd5b506040518060400160405280600581526020017f4d5a4e46540000000000000000000000000000000000000000000000000000008152506040518060400160405280600581526020017f4d5a4e46540000000000000000000000000000000000000000000000000000008152508181620000986301ffc9a760e01b6200011c60201b60201c565b620000b06380ac58cd60e01b6200011c60201b60201c565b620000c863780e9d6360e01b6200011c60201b60201c565b8160099080519060200190620000e0929190620001f4565b5080600a9080519060200190620000f9929190620001f4565b5062000112635b5e139f60e01b6200011c60201b60201c565b5050505062000318565b63ffffffff60e01b817bffffffffffffffffffffffffffffffffffffffffffffffffffffffff1916141562000188576040517f08c379a00000000000000000000000000000000000000000000000000000000081526004016200017f90620002e5565b60405180910390fd5b6001600080837bffffffffffffffffffffffffffffffffffffffffffffffffffffffff19167bffffffffffffffffffffffffffffffffffffffffffffffffffffffff1916815260200190815260200160002060006101000a81548160ff02191690831515021790555050565b828054600181600116156101000203166002900490600052602060002090601f016020900481019282601f106200023757805160ff191683800117855562000268565b8280016001018555821562000268579182015b82811115620002675782518255916020019190600101906200024a565b5b5090506200027791906200027b565b5090565b620002a091905b808211156200029c57600081600090555060010162000282565b5090565b90565b6000620002b2601b8362000307565b91507f4b495031333a20696e76616c696420696e7465726661636520696400000000006000830152602082019050919050565b600060208201905081810360008301526200030081620002a3565b9050919050565b600082825260208201905092915050565b6131f980620003286000396000f3fe608060405234801561001057600080fd5b50600436106101215760003560e01c806342842e0e116100ad57806399071190116100715780639907119014610357578063a22cb46514610387578063b88d4fde146103a3578063c87b56dd146103bf578063e985e9c5146103ef57610121565b806342842e0e1461028d5780634f6ccce7146102a95780636352211e146102d957806370a082311461030957806395d89b411461033957610121565b806317b47cc4116100f457806317b47cc4146101c057806318160ddd146101f357806323b872dd146102115780632f745c591461022d5780633129e7731461025d57610121565b806301ffc9a71461012657806306fdde0314610156578063081812fc14610174578063095ea7b3146101a4575b600080fd5b610140600480360361013b9190810190612436565b61041f565b60405161014d9190612cd0565b60405180910390f35b61015e610486565b60405161016b9190612ceb565b60405180910390f35b61018e60048036036101899190810190612488565b610528565b60405161019b9190612c69565b60405180910390f35b6101be60048036036101b991908101906123fa565b6105ad565b005b6101da60048036036101d59190810190612488565b61075a565b6040516101ea9493929190612f4a565b60405180910390f35b6101fb6108da565b6040516102089190612f2f565b60405180910390f35b61022b60048036036102269190810190612275565b6108e7565b005b610247600480360361024291908101906123fa565b610940565b6040516102549190612f2f565b60405180910390f35b61027760048036036102729190810190612488565b6109e9565b6040516102849190612f0d565b60405180910390f35b6102a760048036036102a29190810190612275565b610c02565b005b6102c360048036036102be9190810190612488565b610c22565b6040516102d09190612f2f565b60405180910390f35b6102f360048036036102ee9190810190612488565b610c8c565b6040516103009190612c69565b60405180910390f35b610323600480360361031e9190810190612210565b610d3e565b6040516103309190612f2f565b60405180910390f35b610341610dfd565b60405161034e9190612ceb565b60405180910390f35b610371600480360361036c919081019061237b565b610e9f565b60405161037e9190612f2f565b60405180910390f35b6103a1600480360361039c919081019061233f565b610fa6565b005b6103bd60048036036103b891908101906122c4565b611112565b005b6103d960048036036103d49190810190612488565b61116e565b6040516103e69190612ceb565b60405180910390f35b61040960048036036104049190810190612239565b61126e565b6040516104169190612cd0565b60405180910390f35b6000806000837bffffffffffffffffffffffffffffffffffffffffffffffffffffffff19167bffffffffffffffffffffffffffffffffffffffffffffffffffffffff1916815260200190815260200160002060009054906101000a900460ff169050919050565b606060098054600181600116156101000203166002900480601f01602080910402602001604051908101604052809291908181526020018280546001816001161561010002031660029004801561051e5780601f106104f35761010080835404028352916020019161051e565b820191906000526020600020905b81548152906001019060200180831161050157829003601f168201915b5050505050905090565b600061053382611302565b610572576040517f08c379a000000000000000000000000000000000000000000000000000000000815260040161056990612e8d565b60405180910390fd5b6002600083815260200190815260200160002060009054906101000a900473ffffffffffffffffffffffffffffffffffffffff169050919050565b60006105b882610c8c565b90508073ffffffffffffffffffffffffffffffffffffffff168373ffffffffffffffffffffffffffffffffffffffff161415610629576040517f08c379a000000000000000000000000000000000000000000000000000000000815260040161062090612d2d565b60405180910390fd5b8073ffffffffffffffffffffffffffffffffffffffff163373ffffffffffffffffffffffffffffffffffffffff1614806106695750610668813361126e565b5b6106a8576040517f08c379a000000000000000000000000000000000000000000000000000000000815260040161069f90612ead565b60405180910390fd5b826002600084815260200190815260200160002060006101000a81548173ffffffffffffffffffffffffffffffffffffffff021916908373ffffffffffffffffffffffffffffffffffffffff160217905550818373ffffffffffffffffffffffffffffffffffffffff168273ffffffffffffffffffffffffffffffffffffffff167f8c5be1e5ebec7d5bd14f71427d1e84f3dd0314c0f7b2291e5b200ac8c7c3b92560405160405180910390a4505050565b600d602052806000526040600020600091509050806000015490806001018054600181600116156101000203166002900480601f01602080910402602001604051908101604052809291908181526020018280546001816001161561010002031660029004801561080c5780601f106107e15761010080835404028352916020019161080c565b820191906000526020600020905b8154815290600101906020018083116107ef57829003601f168201915b5050505050908060020160009054906101000a900473ffffffffffffffffffffffffffffffffffffffff1690806003018054600181600116156101000203166002900480601f0160208091040260200160405190810160405280929190818152602001828054600181600116156101000203166002900480156108d05780601f106108a5576101008083540402835291602001916108d0565b820191906000526020600020905b8154815290600101906020018083116108b357829003601f168201915b5050505050905084565b6000600780549050905090565b6108f13382611374565b610930576040517f08c379a000000000000000000000000000000000000000000000000000000000815260040161092790612dcd565b60405180910390fd5b61093b838383611452565b505050565b600061094b83610d3e565b821061098c576040517f08c379a000000000000000000000000000000000000000000000000000000000815260040161098390612d6d565b60405180910390fd5b600560008473ffffffffffffffffffffffffffffffffffffffff1673ffffffffffffffffffffffffffffffffffffffff16815260200190815260200160002082815481106109d657fe5b9060005260206000200154905092915050565b6109f1611ff0565b6109fa82611302565b610a39576040517f08c379a0000000000000000000000000000000000000000000000000000000008152600401610a3090612e4d565b60405180910390fd5b600d600083815260200190815260200160002060405180608001604052908160008201548152602001600182018054600181600116156101000203166002900480601f016020809104026020016040519081016040528092919081815260200182805460018160011615610100020316600290048015610afa5780601f10610acf57610100808354040283529160200191610afa565b820191906000526020600020905b815481529060010190602001808311610add57829003601f168201915b505050505081526020016002820160009054906101000a900473ffffffffffffffffffffffffffffffffffffffff1673ffffffffffffffffffffffffffffffffffffffff1673ffffffffffffffffffffffffffffffffffffffff168152602001600382018054600181600116156101000203166002900480601f016020809104026020016040519081016040528092919081815260200182805460018160011615610100020316600290048015610bf25780601f10610bc757610100808354040283529160200191610bf2565b820191906000526020600020905b815481529060010190602001808311610bd557829003601f168201915b5050505050815250509050919050565b610c1d83838360405180602001604052806000815250611112565b505050565b6000610c2c6108da565b8210610c6d576040517f08c379a0000000000000000000000000000000000000000000000000000000008152600401610c6490612e6d565b60405180910390fd5b60078281548110610c7a57fe5b90600052602060002001549050919050565b6000806001600084815260200190815260200160002060009054906101000a900473ffffffffffffffffffffffffffffffffffffffff169050600073ffffffffffffffffffffffffffffffffffffffff168173ffffffffffffffffffffffffffffffffffffffff161415610d35576040517f08c379a0000000000000000000000000000000000000000000000000000000008152600401610d2c90612d8d565b60405180910390fd5b80915050919050565b60008073ffffffffffffffffffffffffffffffffffffffff168273ffffffffffffffffffffffffffffffffffffffff161415610daf576040517f08c379a0000000000000000000000000000000000000000000000000000000008152600401610da690612e0d565b60405180910390fd5b610df6600360008473ffffffffffffffffffffffffffffffffffffffff1673ffffffffffffffffffffffffffffffffffffffff168152602001908152602001600020611476565b9050919050565b6060600a8054600181600116156101000203166002900480601f016020809104026020016040519081016040528092919081815260200182805460018160011615610100020316600290048015610e955780601f10610e6a57610100808354040283529160200191610e95565b820191906000526020600020905b815481529060010190602001808311610e7857829003601f168201915b5050505050905090565b6000610eab600c611484565b6000610eb7600c611476565b9050610ec3858261149a565b60405180608001604052808281526020018481526020018673ffffffffffffffffffffffffffffffffffffffff16815260200185815250600d6000838152602001908152602001600020600082015181600001556020820151816001019080519060200190610f3392919061202e565b5060408201518160020160006101000a81548173ffffffffffffffffffffffffffffffffffffffff021916908373ffffffffffffffffffffffffffffffffffffffff1602179055506060820151816003019080519060200190610f9792919061202e565b50905050809150509392505050565b3373ffffffffffffffffffffffffffffffffffffffff168273ffffffffffffffffffffffffffffffffffffffff161415611015576040517f08c379a000000000000000000000000000000000000000000000000000000000815260040161100c90612dad565b60405180910390fd5b80600460003373ffffffffffffffffffffffffffffffffffffffff1673ffffffffffffffffffffffffffffffffffffffff16815260200190815260200160002060008473ffffffffffffffffffffffffffffffffffffffff1673ffffffffffffffffffffffffffffffffffffffff16815260200190815260200160002060006101000a81548160ff0219169083151502179055508173ffffffffffffffffffffffffffffffffffffffff163373ffffffffffffffffffffffffffffffffffffffff167f17307eab39ab6107e8899845ad3d59bd9653f200f220920489ca2b5937696c31836040516111069190612cd0565b60405180910390a35050565b61111d8484846108e7565b611129848484846114bb565b611168576040517f08c379a000000000000000000000000000000000000000000000000000000000815260040161115f90612ded565b60405180910390fd5b50505050565b606061117982611302565b6111b8576040517f08c379a00000000000000000000000000000000000000000000000000000000081526004016111af90612e4d565b60405180910390fd5b600d60008381526020019081526020016000206003018054600181600116156101000203166002900480601f0160208091040260200160405190810160405280929190818152602001828054600181600116156101000203166002900480156112625780601f1061123757610100808354040283529160200191611262565b820191906000526020600020905b81548152906001019060200180831161124557829003601f168201915b50505050509050919050565b6000600460008473ffffffffffffffffffffffffffffffffffffffff1673ffffffffffffffffffffffffffffffffffffffff16815260200190815260200160002060008373ffffffffffffffffffffffffffffffffffffffff1673ffffffffffffffffffffffffffffffffffffffff16815260200190815260200160002060009054906101000a900460ff16905092915050565b6000806001600084815260200190815260200160002060009054906101000a900473ffffffffffffffffffffffffffffffffffffffff169050600073ffffffffffffffffffffffffffffffffffffffff168173ffffffffffffffffffffffffffffffffffffffff161415915050919050565b600061137f82611302565b6113be576040517f08c379a00000000000000000000000000000000000000000000000000000000081526004016113b590612eed565b60405180910390fd5b60006113c983610c8c565b90508073ffffffffffffffffffffffffffffffffffffffff168473ffffffffffffffffffffffffffffffffffffffff16148061143857508373ffffffffffffffffffffffffffffffffffffffff1661142084610528565b73ffffffffffffffffffffffffffffffffffffffff16145b806114495750611448818561126e565b5b91505092915050565b61145d8383836117c5565b61146783826119f4565b6114718282611b92565b505050565b600081600001549050919050565b6001816000016000828254019250508190555050565b6114a48282611c59565b6114ae8282611b92565b6114b781611e0b565b5050565b60008060606114df8673ffffffffffffffffffffffffffffffffffffffff16611e57565b6114ee576001925050506117bd565b8573ffffffffffffffffffffffffffffffffffffffff1663150b7a0260e01b338988886040516024016115249493929190612c84565b604051602081830303815290604052907bffffffffffffffffffffffffffffffffffffffffffffffffffffffff19166020820180517bffffffffffffffffffffffffffffffffffffffffffffffffffffffff838183161783525050505060405161158e9190612c52565b6000604051808303816000865af19150503d80600081146115cb576040519150601f19603f3d011682016040523d82523d6000602084013e6115d0565b606091505b5080925081935050506000815114158015611642575063150b7a0260e01b7bffffffffffffffffffffffffffffffffffffffffffffffffffffffff191681806020019051611621919081019061245f565b7bffffffffffffffffffffffffffffffffffffffffffffffffffffffff1916145b15611652576001925050506117bd565b8573ffffffffffffffffffffffffffffffffffffffff16636745782b60e01b338988886040516024016116889493929190612c84565b604051602081830303815290604052907bffffffffffffffffffffffffffffffffffffffffffffffffffffffff19166020820180517bffffffffffffffffffffffffffffffffffffffffffffffffffffffff83818316178352505050506040516116f29190612c52565b6000604051808303816000865af19150503d806000811461172f576040519150601f19603f3d011682016040523d82523d6000602084013e611734565b606091505b50809250819350505060008151141580156117a65750636745782b60e01b7bffffffffffffffffffffffffffffffffffffffffffffffffffffffff191681806020019051611785919081019061245f565b7bffffffffffffffffffffffffffffffffffffffffffffffffffffffff1916145b156117b6576001925050506117bd565b6000925050505b949350505050565b8273ffffffffffffffffffffffffffffffffffffffff166117e582610c8c565b73ffffffffffffffffffffffffffffffffffffffff161461183b576040517f08c379a000000000000000000000000000000000000000000000000000000000815260040161183290612e2d565b60405180910390fd5b600073ffffffffffffffffffffffffffffffffffffffff168273ffffffffffffffffffffffffffffffffffffffff1614156118ab576040517f08c379a00000000000000000000000000000000000000000000000000000000081526004016118a290612d0d565b60405180910390fd5b6118b481611e6a565b6118fb600360008573ffffffffffffffffffffffffffffffffffffffff1673ffffffffffffffffffffffffffffffffffffffff168152602001908152602001600020611f28565b611942600360008473ffffffffffffffffffffffffffffffffffffffff1673ffffffffffffffffffffffffffffffffffffffff168152602001908152602001600020611484565b816001600083815260200190815260200160002060006101000a81548173ffffffffffffffffffffffffffffffffffffffff021916908373ffffffffffffffffffffffffffffffffffffffff160217905550808273ffffffffffffffffffffffffffffffffffffffff168473ffffffffffffffffffffffffffffffffffffffff167fddf252ad1be2c89b69c2b068fc378daa952ba7f163c4a11628f55a4df523b3ef60405160405180910390a4505050565b6000611a4c6001600560008673ffffffffffffffffffffffffffffffffffffffff1673ffffffffffffffffffffffffffffffffffffffff16815260200190815260200160002080549050611f4b90919063ffffffff16565b9050600060066000848152602001908152602001600020549050818114611b39576000600560008673ffffffffffffffffffffffffffffffffffffffff1673ffffffffffffffffffffffffffffffffffffffff1681526020019081526020016000208381548110611ab957fe5b9060005260206000200154905080600560008773ffffffffffffffffffffffffffffffffffffffff1673ffffffffffffffffffffffffffffffffffffffff1681526020019081526020016000208381548110611b1157fe5b9060005260206000200181905550816006600083815260200190815260200160002081905550505b600560008573ffffffffffffffffffffffffffffffffffffffff1673ffffffffffffffffffffffffffffffffffffffff168152602001908152602001600020805480919060019003611b8b91906120ae565b5050505050565b600560008373ffffffffffffffffffffffffffffffffffffffff1673ffffffffffffffffffffffffffffffffffffffff168152602001908152602001600020805490506006600083815260200190815260200160002081905550600560008373ffffffffffffffffffffffffffffffffffffffff1673ffffffffffffffffffffffffffffffffffffffff1681526020019081526020016000208190806001815401808255809150509060018203906000526020600020016000909192909190915055505050565b600073ffffffffffffffffffffffffffffffffffffffff168273ffffffffffffffffffffffffffffffffffffffff161415611cc9576040517f08c379a0000000000000000000000000000000000000000000000000000000008152600401611cc090612d4d565b60405180910390fd5b611cd281611302565b15611d12576040517f08c379a0000000000000000000000000000000000000000000000000000000008152600401611d0990612ecd565b60405180910390fd5b816001600083815260200190815260200160002060006101000a81548173ffffffffffffffffffffffffffffffffffffffff021916908373ffffffffffffffffffffffffffffffffffffffff160217905550611dab600360008473ffffffffffffffffffffffffffffffffffffffff1673ffffffffffffffffffffffffffffffffffffffff168152602001908152602001600020611484565b808273ffffffffffffffffffffffffffffffffffffffff16600073ffffffffffffffffffffffffffffffffffffffff167fddf252ad1be2c89b69c2b068fc378daa952ba7f163c4a11628f55a4df523b3ef60405160405180910390a45050565b6007805490506008600083815260200190815260200160002081905550600781908060018154018082558091505090600182039060005260206000200160009091929091909150555050565b600080823b905060008111915050919050565b600073ffffffffffffffffffffffffffffffffffffffff166002600083815260200190815260200160002060009054906101000a900473ffffffffffffffffffffffffffffffffffffffff1673ffffffffffffffffffffffffffffffffffffffff1614611f255760006002600083815260200190815260200160002060006101000a81548173ffffffffffffffffffffffffffffffffffffffff021916908373ffffffffffffffffffffffffffffffffffffffff1602179055505b50565b611f4060018260000154611f4b90919063ffffffff16565b816000018190555050565b6000611f8d83836040518060400160405280601e81526020017f536166654d6174683a207375627472616374696f6e206f766572666c6f770000815250611f95565b905092915050565b6000838311158290611fdd576040517f08c379a0000000000000000000000000000000000000000000000000000000008152600401611fd49190612ceb565b60405180910390fd5b5060008385039050809150509392505050565b60405180608001604052806000815260200160608152602001600073ffffffffffffffffffffffffffffffffffffffff168152602001606081525090565b828054600181600116156101000203166002900490600052602060002090601f016020900481019282601f1061206f57805160ff191683800117855561209d565b8280016001018555821561209d579182015b8281111561209c578251825591602001919060010190612081565b5b5090506120aa91906120da565b5090565b8154818355818111156120d5578183600052602060002091820191016120d491906120da565b5b505050565b6120fc91905b808211156120f85760008160009055506001016120e0565b5090565b90565b60008135905061210e8161315a565b92915050565b60008135905061212381613171565b92915050565b60008135905061213881613188565b92915050565b60008151905061214d81613188565b92915050565b600082601f83011261216457600080fd5b813561217761217282612fca565b612f9d565b9150808252602083016020830185838301111561219357600080fd5b61219e838284613107565b50505092915050565b600082601f8301126121b857600080fd5b81356121cb6121c682612ff6565b612f9d565b915080825260208301602083018583830111156121e757600080fd5b6121f2838284613107565b50505092915050565b60008135905061220a8161319f565b92915050565b60006020828403121561222257600080fd5b6000612230848285016120ff565b91505092915050565b6000806040838503121561224c57600080fd5b600061225a858286016120ff565b925050602061226b858286016120ff565b9150509250929050565b60008060006060848603121561228a57600080fd5b6000612298868287016120ff565b93505060206122a9868287016120ff565b92505060406122ba868287016121fb565b9150509250925092565b600080600080608085870312156122da57600080fd5b60006122e8878288016120ff565b94505060206122f9878288016120ff565b935050604061230a878288016121fb565b925050606085013567ffffffffffffffff81111561232757600080fd5b61233387828801612153565b91505092959194509250565b6000806040838503121561235257600080fd5b6000612360858286016120ff565b925050602061237185828601612114565b9150509250929050565b60008060006060848603121561239057600080fd5b600061239e868287016120ff565b935050602084013567ffffffffffffffff8111156123bb57600080fd5b6123c7868287016121a7565b925050604084013567ffffffffffffffff8111156123e457600080fd5b6123f0868287016121a7565b9150509250925092565b6000806040838503121561240d57600080fd5b600061241b858286016120ff565b925050602061242c858286016121fb565b9150509250929050565b60006020828403121561244857600080fd5b600061245684828501612129565b91505092915050565b60006020828403121561247157600080fd5b600061247f8482850161213e565b91505092915050565b60006020828403121561249a57600080fd5b60006124a8848285016121fb565b91505092915050565b6124ba81613093565b82525050565b6124c981613081565b82525050565b6124d881613081565b82525050565b6124e7816130a5565b82525050565b60006124f882613022565b6125028185613043565b9350612512818560208601613116565b61251b81613149565b840191505092915050565b600061253182613022565b61253b8185613054565b935061254b818560208601613116565b80840191505092915050565b600061256282613038565b61256c8185613070565b935061257c818560208601613116565b61258581613149565b840191505092915050565b600061259b8261302d565b6125a5818561305f565b93506125b5818560208601613116565b6125be81613149565b840191505092915050565b60006125d48261302d565b6125de8185613070565b93506125ee818560208601613116565b6125f781613149565b840191505092915050565b600061260f602383613070565b91507f4b495031373a207472616e7366657220746f20746865207a65726f206164647260008301527f65737300000000000000000000000000000000000000000000000000000000006020830152604082019050919050565b6000612675602083613070565b91507f4b495031373a20617070726f76616c20746f2063757272656e74206f776e65726000830152602082019050919050565b60006126b5601f83613070565b91507f4b495031373a206d696e7420746f20746865207a65726f2061646472657373006000830152602082019050919050565b60006126f5602a83613070565b91507f4b49503137456e756d657261626c653a206f776e657220696e646578206f757460008301527f206f6620626f756e6473000000000000000000000000000000000000000000006020830152604082019050919050565b600061275b602883613070565b91507f4b495031373a206f776e657220717565727920666f72206e6f6e65786973746560008301527f6e7420746f6b656e0000000000000000000000000000000000000000000000006020830152604082019050919050565b60006127c1601883613070565b91507f4b495031373a20617070726f766520746f2063616c6c657200000000000000006000830152602082019050919050565b6000612801603083613070565b91507f4b495031373a207472616e736665722063616c6c6572206973206e6f74206f7760008301527f6e6572206e6f7220617070726f766564000000000000000000000000000000006020830152604082019050919050565b6000612867603083613070565b91507f4b495031373a207472616e7366657220746f206e6f6e204b495031375265636560008301527f6976657220696d706c656d656e746572000000000000000000000000000000006020830152604082019050919050565b60006128cd602983613070565b91507f4b495031373a2062616c616e636520717565727920666f7220746865207a657260008301527f6f206164647265737300000000000000000000000000000000000000000000006020830152604082019050919050565b6000612933602883613070565b91507f4b495031373a207472616e73666572206f6620746f6b656e207468617420697360008301527f206e6f74206f776e0000000000000000000000000000000000000000000000006020830152604082019050919050565b6000612999603283613070565b91507f4b49502d31372055524953746f726167653a2055524920717565727920666f7260008301527f206e6f6e6578697374656e7420746f6b656e00000000000000000000000000006020830152604082019050919050565b60006129ff602b83613070565b91507f4b49503137456e756d657261626c653a20676c6f62616c20696e646578206f7560008301527f74206f6620626f756e64730000000000000000000000000000000000000000006020830152604082019050919050565b6000612a65602b83613070565b91507f4b495031373a20617070726f76656420717565727920666f72206e6f6e65786960008301527f7374656e7420746f6b656e0000000000000000000000000000000000000000006020830152604082019050919050565b6000612acb603783613070565b91507f4b495031373a20617070726f76652063616c6c6572206973206e6f74206f776e60008301527f6572206e6f7220617070726f76656420666f7220616c6c0000000000000000006020830152604082019050919050565b6000612b31601b83613070565b91507f4b495031373a20746f6b656e20616c7265616479206d696e74656400000000006000830152602082019050919050565b6000612b71602b83613070565b91507f4b495031373a206f70657261746f7220717565727920666f72206e6f6e65786960008301527f7374656e7420746f6b656e0000000000000000000000000000000000000000006020830152604082019050919050565b6000608083016000830151612be26000860182612c34565b5060208301518482036020860152612bfa8282612590565b9150506040830151612c0f60408601826124c0565b5060608301518482036060860152612c278282612590565b9150508091505092915050565b612c3d816130fd565b82525050565b612c4c816130fd565b82525050565b6000612c5e8284612526565b915081905092915050565b6000602082019050612c7e60008301846124cf565b92915050565b6000608082019050612c9960008301876124b1565b612ca660208301866124cf565b612cb36040830185612c43565b8181036060830152612cc581846124ed565b905095945050505050565b6000602082019050612ce560008301846124de565b92915050565b60006020820190508181036000830152612d058184612557565b905092915050565b60006020820190508181036000830152612d2681612602565b9050919050565b60006020820190508181036000830152612d4681612668565b9050919050565b60006020820190508181036000830152612d66816126a8565b9050919050565b60006020820190508181036000830152612d86816126e8565b9050919050565b60006020820190508181036000830152612da68161274e565b9050919050565b60006020820190508181036000830152612dc6816127b4565b9050919050565b60006020820190508181036000830152612de6816127f4565b9050919050565b60006020820190508181036000830152612e068161285a565b9050919050565b60006020820190508181036000830152612e26816128c0565b9050919050565b60006020820190508181036000830152612e4681612926565b9050919050565b60006020820190508181036000830152612e668161298c565b9050919050565b60006020820190508181036000830152612e86816129f2565b9050919050565b60006020820190508181036000830152612ea681612a58565b9050919050565b60006020820190508181036000830152612ec681612abe565b9050919050565b60006020820190508181036000830152612ee681612b24565b9050919050565b60006020820190508181036000830152612f0681612b64565b9050919050565b60006020820190508181036000830152612f278184612bca565b905092915050565b6000602082019050612f446000830184612c43565b92915050565b6000608082019050612f5f6000830187612c43565b8181036020830152612f7181866125c9565b9050612f8060408301856124cf565b8181036060830152612f9281846125c9565b905095945050505050565b6000604051905081810181811067ffffffffffffffff82111715612fc057600080fd5b8060405250919050565b600067ffffffffffffffff821115612fe157600080fd5b601f19601f8301169050602081019050919050565b600067ffffffffffffffff82111561300d57600080fd5b601f19601f8301169050602081019050919050565b600081519050919050565b600081519050919050565b600081519050919050565b600082825260208201905092915050565b600081905092915050565b600082825260208201905092915050565b600082825260208201905092915050565b600061308c826130dd565b9050919050565b600061309e826130dd565b9050919050565b60008115159050919050565b60007fffffffff0000000000000000000000000000000000000000000000000000000082169050919050565b600073ffffffffffffffffffffffffffffffffffffffff82169050919050565b6000819050919050565b82818337600083830152505050565b60005b83811015613134578082015181840152602081019050613119565b83811115613143576000848401525b50505050565b6000601f19601f8301169050919050565b61316381613081565b811461316e57600080fd5b50565b61317a816130a5565b811461318557600080fd5b50565b613191816130b1565b811461319c57600080fd5b50565b6131a8816130fd565b81146131b357600080fd5b5056fea365627a7a7231582057d3eec49008e4db070e2c95e92ccb1024fd50598320fd1335f4adceeb1c67536c6578706572696d656e74616cf564736f6c63430005100040",
  "source": "pragma solidity >=0.4.22 <0.9.0;\r\npragma experimental ABIEncoderV2;\r\n\r\nimport \"@klaytn/contracts/token/KIP17/KIP17Token.sol\";\r\nimport \"@klaytn/contracts/drafts/Counters.sol\";\r\n\r\ncontract MZNFT is KIP17Full {\r\n    using Counters for Counters.Counter;\r\n    Counters.Counter private _tokenIds;\r\n\r\n     struct Item {\r\n        uint256 id;\r\n        string name;\r\n        address creator;\r\n        string img_uri;//metadata url\r\n      }\r\n\r\n    mapping(uint256 => Item) public Items; //id => Item\r\n    constructor() public KIP17Full(\"MZNFT\", \"MZNFT\") {}\r\n\r\n   function mint(address creator, string memory uri, string memory contentName)\r\n        public\r\n        returns (uint256)\r\n    {\r\n        _tokenIds.increment();\r\n\r\n        uint256 newItemId = _tokenIds.current();\r\n        _mint(creator, newItemId);\r\n\r\n         Items[newItemId] = Item({\r\n                  id: newItemId,\r\n                  name: contentName,\r\n                  creator: creator,\r\n                  img_uri: uri\r\n                });\r\n\r\n        return newItemId;\r\n    }\r\n\r\n   function tokenURI(uint256 tokenId)\r\n        public\r\n        view\r\n        returns(string memory)\r\n    {\r\n        require(_exists(tokenId), \"KIP-17 URIStorage: URI query for nonexistent token\");\r\n        return Items[tokenId].img_uri;\r\n    }\r\n\r\n   function getItem(uint256 tokenId)\r\n        public\r\n        view\r\n        returns (Item memory)\r\n    {\r\n       require(_exists(tokenId), \"KIP-17 URIStorage: URI query for nonexistent token\");\r\n       return Items[tokenId];\r\n    }\r\n\r\n\r\n}",
  "sourcePath": "C:\\Users\\MZC01-YPJO\\Desktop\\NFT Market(Klaytn)\\BlockchainAPI_backend\\contracts\\MZNFT.sol",
  "compiler": {
    "name": "solc",
    "version": "0.5.16+commit.9c3226ce.Emscripten.clang"
  },
  "schemaVersion": "3.4.4",
  "updatedAt": "2022-06-08T08:15:47.342Z",
  "networkType": "ethereum",
  "devdoc": {
    "methods": {
      "approve(address,uint256)": {
        "details": "Approves another address to transfer the given token ID The zero address indicates there is no approved address. There can only be one approved address per token at a given time. Can only be called by the token owner or an approved operator.",
        "params": {
          "to": "address to be approved for the given token ID",
          "tokenId": "uint256 ID of the token to be approved"
        }
      },
      "balanceOf(address)": {
        "details": "Gets the balance of the specified address.",
        "params": {
          "owner": "address to query the balance of"
        },
        "return": "uint256 representing the amount owned by the passed address"
      },
      "getApproved(uint256)": {
        "details": "Gets the approved address for a token ID, or zero if no address set Reverts if the token ID does not exist.",
        "params": {
          "tokenId": "uint256 ID of the token to query the approval of"
        },
        "return": "address currently approved for the given token ID"
      },
      "isApprovedForAll(address,address)": {
        "details": "Tells whether an operator is approved by a given owner.",
        "params": {
          "operator": "operator address which you want to query the approval of",
          "owner": "owner address which you want to query the approval of"
        },
        "return": "bool whether the given operator is approved by the given owner"
      },
      "name()": {
        "details": "Gets the token name.",
        "return": "string representing the token name"
      },
      "ownerOf(uint256)": {
        "details": "Gets the owner of the specified token ID.",
        "params": {
          "tokenId": "uint256 ID of the token to query the owner of"
        },
        "return": "address currently marked as the owner of the given token ID"
      },
      "safeTransferFrom(address,address,uint256)": {
        "details": "Safely transfers the ownership of a given token ID to another address If the target address is a contract, it must implement `onKIP17Received`, which is called upon a safe transfer, and return the magic value `bytes4(keccak256(\"onKIP17Received(address,address,uint256,bytes)\"))`; otherwise, the transfer is reverted. Requires the msg.sender to be the owner, approved, or operator",
        "params": {
          "from": "current owner of the token",
          "to": "address to receive the ownership of the given token ID",
          "tokenId": "uint256 ID of the token to be transferred"
        }
      },
      "safeTransferFrom(address,address,uint256,bytes)": {
        "details": "Safely transfers the ownership of a given token ID to another address If the target address is a contract, it must implement `onKIP17Received`, which is called upon a safe transfer, and return the magic value `bytes4(keccak256(\"onKIP17Received(address,address,uint256,bytes)\"))`; otherwise, the transfer is reverted. Requires the msg.sender to be the owner, approved, or operator",
        "params": {
          "_data": "bytes data to send along with a safe transfer check",
          "from": "current owner of the token",
          "to": "address to receive the ownership of the given token ID",
          "tokenId": "uint256 ID of the token to be transferred"
        }
      },
      "setApprovalForAll(address,bool)": {
        "details": "Sets or unsets the approval of a given operator An operator is allowed to transfer all tokens of the sender on their behalf.",
        "params": {
          "approved": "representing the status of the approval to be set",
          "to": "operator address to set the approval"
        }
      },
      "supportsInterface(bytes4)": {
        "details": "See `IKIP13.supportsInterface`.     * Time complexity O(1), guaranteed to always use less than 30 000 gas."
      },
      "symbol()": {
        "details": "Gets the token symbol.",
        "return": "string representing the token symbol"
      },
      "tokenByIndex(uint256)": {
        "details": "Gets the token ID at a given index of all the tokens in this contract Reverts if the index is greater or equal to the total number of tokens.",
        "params": {
          "index": "uint256 representing the index to be accessed of the tokens list"
        },
        "return": "uint256 token ID at the given index of the tokens list"
      },
      "tokenOfOwnerByIndex(address,uint256)": {
        "details": "Gets the token ID at a given index of the tokens list of the requested owner.",
        "params": {
          "index": "uint256 representing the index to be accessed of the requested tokens list",
          "owner": "address owning the tokens list to be accessed"
        },
        "return": "uint256 token ID at the given index of the tokens list owned by the requested address"
      },
      "totalSupply()": {
        "details": "Gets the total amount of tokens stored by the contract.",
        "return": "uint256 representing the total amount of tokens"
      },
      "transferFrom(address,address,uint256)": {
        "details": "Transfers the ownership of a given token ID to another address. Usage of this method is discouraged, use `safeTransferFrom` whenever possible. Requires the msg.sender to be the owner, approved, or operator.",
        "params": {
          "from": "current owner of the token",
          "to": "address to receive the ownership of the given token ID",
          "tokenId": "uint256 ID of the token to be transferred"
        }
      }
    }
  },
  "userdoc": {
    "methods": {}
  }
}